:040000008A15922AA1
:10000800FF00030E83018316AF000A08AE008A01C1
:1000180070088312A3007C08A2007D08A1008B1C35
:1000280036284130FC00EE30FD00FD0B1928FC0B92
:10003800192800000030061801308316B200320873
:10004800013A031D342801138312871309108316FC
:10005800A5118312C501C60183162512251435285A
:1000680001178B100B1C4B288316A5148312061A34
:1000780040288316A301432883160130A300831266
:10008800861A4828EB014A280130EB000B100B1D9B
:10009800742883120B118101C30A0319C40A0030A2
:1000A8004402031D59284C304302031C5F28C30136
:1000B800C401831625158316A51D74288312C50A45
:1000C8000319C60A03304602031D6C289430450202
:1000D800031C7428C501C60183162516A51125140D
:1000E80083122308F0002208FC002108FD00831673
:0E00F8002E088A002F0E8300FF0E7F0E0900D7
:0E010600033083120313FD00FD0B8728080051
:0401140000000800DF
:0A0118008320071783200713080057
:100122007F30831603135405F1007108D400711F48
:100132009E28831287160712A12883128712071698
:020142000800B3
:100144008312031306118611B830831654048312E4
:0601540088008C20080069
:10015A00803083120313F0007008083E8400FF30D9
:10016A0080008A208A200615071386150717832020
:10017A0008088316D4008312071386118A208A205E
:10018A008030F0007008083E84008001831654080D
:04019A00F000080069
:10019E007F30831603135405F0007008D4008312C9
:1001AE0006118611BF30F00570088316D400701743
:0E01BE007008D4007008831288008C2008009E
:1001CC008312031307130615861183165408831222
:0601DC0088008C200800E1
:1001E2007B15FB1FFB280130F300F201F101F00146
:0801F200FA0DF20CFF300800C9
:0801FA00FA1FF21300300800A7
:0E020200F201F101F001F801F30100300800F3
:100210000030831603134E02031C1B294E087F3C3B
:10022000031C1B2900304F02031C1B294F083F3CB5
:10023000031C1B291C296E294E08D400912083160B
:100240004F08D400D40CD413D40CD413D40CD4132E
:10025000A22083164E08D400CF20AD207008D30012
:10026000AD207008D3004F08D400D40CD413D40CA4
:10027000D413D40CD413A22083164E08D400CF205C
:10028000073083164F05F0007008D1007008F100A8
:100290000130F000710803195129F00D7010FF3E74
:1002A0004B297008D1007009D2005F295208D3058C
:1002B0006B295108D3046B295108D3066B295008C8
:1002C000003A031956295008013A031959295008D0
:0E02D000023A03195C295308D400E620080006
:1002DE0083120313F801F9011030FC00710DF80DB3
:1002EE00F90D7408F8027508031C750FF90203184E
:1002FE0087297408F80775080318750FF907031096
:0A030E00F00DF10DFC0B752908003D
:1003180083120313FB01FA01F9018030F800F10C94
:10032800F00C031CA0297408F90775080318750F49
:10033800FA070318FB0A0310F01FA8297408FA0724
:1003480075080318750FFB07FB0CFA0CF90CF80C71
:10035800031C93297B08F3007A08F2007908F1005E
:060368007808F000080017
:0E036E008316031331088A003008820008004D
:06037C00FB15FF30080034
:100382007B14FB1FCC29F201FA1FFF30F200F100AF
:0A039200F000FA0DF20CFF30080035
:10039C00FB14FB1FD829FF30F300F200F100F00032
:0803AC00FA0DF20CFF3008000D
:1003B400A0017208031DEF297108F2007008F10012
:1003C400F001A0157208031DEF297108F200F10174
:1003D400A011201672080319FD292008F302031D39
:1003E400031C012A0310F21B052AF00DF10DF20D76
:1003F400F30BF529012A0130FC000121082A0230FF
:0E040400FC00F120082A0430FC00FD20080056
:0E041200073083120313FD00FD0B0D2A0800B6
:100420000030831603134602031C1B2A46087F3C38
:10043000031C1B2A1C2A4B2A003044020318212AC1
:10044000C40144083F3C0318272A3F30C400003051
:10045000450203182C2AC50145083F3C0318322ADF
:100460003F30C5004408450203183C2A4408C80030
:100470004508C4004808C50044084502031C4B2A2F
:100480004608CE004408CF004708D0000821831654
:080490000313C40A3C2A080012
:1004980083160313C7010530470203185A2A470871
:1004A8004607840020308000C70A4F2A47084607BD
:1004B80084008001C70347084607C8000A30F400D3
:1004C800F5014408F0004508F1006F217808F000B4
:1004D8007908F1003030F007831648088400700866
:1004E80080000A30F400F5014408F0004508F100E6
:1004F8006F2170088316C4007108C50000307106AA
:10050800031D882A00307006031D8B2A8D2AC70315
:040518005F2A08004E
:10051C000030831603134602031C992A46083F3CFD
:10052C00031C992A9A2AC92A0030440203189F2ACC
:10053C00C40144087F3C0318A52A7F30C400003056
:10054C0045020318AA2AC50145087F3C0318B02AA6
:10055C007F30C500440845020318BA2A4408C80075
:10056C004508C4004808C50044084502031CC92AB4
:10057C004408CE004608CF004708D0000821831657
:08058C000313C40ABA2A080097
:10059400710DF80DF90D7408F8027508031C750F38
:1005A400F902F00DF10D0F30FC00710DF80DF90D8D
:1005B4007408701CE32AF8027508031C750FF9020D
:1005C400E82AF80775080318750FF907F00DF10DFF
:1005D400FC0BD72A7018F42A7408F8077508031856
:0805E400750FF9070000080083
:1005EC00831603134608073C0318FD2A9B2B831222
:1005FC006D0883164402F00083126E08031C013E42
:10060C00F101F10283162D08F400F5018C2170081C
:10061C008316CC007108CD004508D400CF2083167A
:10062C004608D400A2208316C8012D0848020318DE
:10063C00752B45087F3C0318242B9B2B4508D400B5
:10064C00912083164608D400A22083164508D400B6
:10065C00CF20AD207008C900AD207008C900450836
:10066C00D400912083164608D400A2208316450896
:10067C00D400CF2083164C082007F0002108031863
:10068C00013E4D07F1007008B0007108B100B721B0
:10069C008A110A12F0007008CA00CC0A0319CD0A9C
:1006AC007009CB00622B4B08C9006E2B4A08C9009D
:1006BC006E2B4A08C9066E2B4708003A0319592BB2
:1006CC004708013A03195C2B4708023A03195F2BC0
:1006DC004908D400E6208316C50AC80A1B2B450816
:1006EC00D400912083164608D400A2208316450816
:1006FC00D400CF20FF308316CA00CB01922B4A08BE
:10070C00C9004A08D400E6209B2B83164B08C9006D
:10071C004B08D400E6209B2B83164708003A03199C
:0C072C00852B4708013A03198B2B0800AD
:1007380083160313C001C1013B08C2003C08C30073
:1007480080303C06F00080307002031DAD2B003075
:100758003B020318BB2B0130C0000030C1003B082E
:10076800003CC2003C08031C013EC301C30242080E
:10077800C4004308C5003D08C6004C220630BE0030
:100788000030BF003F08003C031DCC2B3E08003C56
:100798000318E72B3E083D07F20001303E02F00047
:1007A8000030031C013E3F02F10070083D07840041
:1007B8000008F00072088400700880000130BE0252
:1007C800031CBF03C62B3D0884002030800040086E
:1007D80041040319052CBE01BF013E083D078400F2
:1007E8000008203A031DFC2BBE0A0319BF0AF12B8F
:1007F8000130BE02031CBF033E083D0784002D30B4
:040808008000080064
:10080C0083160313BC01BD013B08F2003B08F30047
:10081C00720884000008203A031D192C3C083D0482
:10082C00031D192C262C0130BC000030BD007208B1
:10083C0084000008F0007308840070088000F30A3C
:10084C007208F100F20A710884000008003A031DD6
:08085C000E2C3B08F00008001F
:1008640083160313BF012B08003A031D462C0530E1
:10087400AD000730AC006530A0000C30A100203082
:100884008312ED000030EE0083163F083B0784001E
:1008940000080319612C3F083B0784000008C400CA
:1008A4003C08C5003D08C6003E08C700F622831672
:1008B40003132D0AF0007008BC07BF0A462C080079
:1008C400831203137408003A031D712C7508003A4F
:1008D400031D712CFF30F0007F30F100CA2C83120D
:1008E4000313FD01F901F8017108700403190034C0
:1008F40071087506FA00FA1BFD09FB01F51F872C28
:10090400F409F509F40A0319F50AF11F8E2CF0090C
:10091400F109F00A0319F10A71087504FA00FA1BC7
:10092400A32CCA227B18B62CFD1F0034F009F10950
:10093400F00A0319F10AF809F909F80A0319F90A7E
:100944000034F51FB22CF11BAE2C7108F9007008AD
:10095400F800F101F001962CF101F001F00A0034E5
:10096400F109F009FB0A932CF80A0319F90A74082F
:100974007802031D962C75087902031D962CF90143
:10098400F801F00A0319F10AF11F962C0000FF3454
:02099400080059
:10099600831603133B08C4003D08C5003C08C60087
:1009A6003F08C7008E223B08C4003D08C5003E082C
:1009B600C6003F08C7008E223C08C4003E08C5009A
:1009C6003B08C6003F08C70010223C08C4003E088A
:0E09D600C5003D08C6003F08C70010220800FB
:1009E400831203137008F100F0010830FC00710851
:1009F400F40C0318012DFC0BFA2CF1010034031044
:100A0400062DF40C0318F107F10CF00CFC0B032D6C
:020A14000800D8
:100A1600C330831203139F05C0309F0083163B0823
:100A2600F000F00D7010F00D7010700883129F0426
:100A36004709F000700883169F059F1783121F143D
:100A460009229F149F1C292D0000252D1F101E080A
:100A5600F100F00183161E08F0040030F1040800CE
:100A6600831603133B08A0003C08A1003F0883122D
:100A7600ED00831640088312EE0083163D08AD0094
:0A0A86003E08AC000130AB00080090
:100A900083120313FB017308031D770803199F2DAD
:100AA00072087606FA007708F3077E30031C5C2D87
:100AB000F3020318A22D5F2DF302031CA52D72086B
:100AC000F8007108FC007008FD00F817F617031015
:100AD000F201F101F0011830A0007D1C792D74089D
:100AE000F00775080318750FF10776080318760FDD
:100AF000F207F20CF10CF00CF80CFC0CFD0C0310DE
:100B0000A00B6D2DF21B892DF80DF00DF10DF20DDE
:100B1000F3037B1B701C9B2DF81F9B2DF00A031900
:100B2000F10A0319F20A031D9B2DF20CF10CF00CD3
:100B3000F30A0319A22DFA1FF2130030A72D01307A
:100B40000121A72D0230CE21A72D0430F120000075
:020B500008009B
:100B5200831203137008F8007108F000F101F2012A
:100B6200F301FB01FC019630F300FA017008F10079
:0C0B72007808F000F801F201DA21080018
:100B7E0083120313871207168316BD013D08073C27
:100B8E00031CDA2D3D08D400A2208316BC013C08BC
:100B9E003F3C031CD82D3B08D400E6208316BC0A2C
:100BAE00CE2DBD0AC52D8312071287168316BD01E1
:100BBE003D08073C031CF42D3D08D400A2208316EB
:100BCE00BC013C083F3C031CF22D3B08D400E62040
:0C0BDE008316BC0AE82DBD0ADF2D0800BC
:100BEA0083120313FB0173080319322E7208FA00E9
:100BFA00F2178E30F302F31F352EF309F30A083089
:100C0A007302031C182EF300F10D7208F100F201B1
:100C1A0008307302031C182EF300F10DF10173085A
:100C2A00031D0310202E73080319202E0310F20C43
:100C3A00F10CF30B1B2E7B1B711C2A2E031C2A2E74
:100C4A00F10A0319F20AF21B412EFA1F442EF20985
:100C5A00F109F10A0319F20A442EF201F101442EB4
:100C6A007B14FB1F472EF201FA1F472EFF30F200BA
:100C7A00F100FA0DF20C472E0130FC00492E00302B
:100C8A00FC00492EFF30FC00FC0803194D2EC1213F
:0A0C9A007108F0007208F100080074
:100CA400831203137408003A031D6D2E7508003A6D
:100CB400031D6D2E7608003A031D6D2E7708003A49
:100CC400031D6D2EFF30F000FF30F1007F30F20085
:100CD400FF30F300082F8312031377080319FC2E47
:100CE40073080319FF2E720876068039FA00F2178A
:100CF400F617A0017208F8007108FC007008FD00E6
:100D04007408FD027508031C750FFC027608031CA9
:100D1400760FF802F801FC01FD01031C982E031064
:100D2400F20CF10CF00CF80C0130A0007708F3027F
:100D3400031CA22E7E302007F3070318022FA72ED0
:100D44007E302007F307031C052F1830FA07FD0D2A
:100D5400FC0DF80DF00DF10DF20DA00D7408F0026C
:100D64007508031C750FF1027608031C760FF20256
:100D7400760DA004201CC02E7D14CB2E7408F00721
:100D840075080318750FF10776080318760AF20739
:100D94007D10FA031F307A05031DA92E7B1B7D1CD1
:100DA400F22E0310F00DF10DF20DA00D7408F002F7
:100DB4007508031C750FF1027608031C760FF20206
:100DC400760D20040139FD070318FC0A0319F80AFB
:100DD400031DF22EF80CFC0CFD0CF30A0319022F70
:100DE400FA1FF8137808F2007C08F1007D08F0007F
:100DF4000030072F0130BE21072F02300121072FB9
:0E0E04000430CE21072F0830F1200000080036
:100E1200831603133C08C00040083E02031C1C2F2B
:100E22003B08C4003D08C5004008C6003F08C70093
:080E32008E22C00A0D2F0800FA
:100E3A00831603133308BB000B25A9250030F400E1
:100E4A000030F5002030F6008130F70048250030E8
:100E5A00F400C030F5007F30F6008830F7005226E3
:100E6A000030F4000030F5004830F6008530F70015
:060E7A004825F5250800E3
:100E80008316031332080319482F5A30B3004A2F30
:100E90000A30B3003308B4003308F0002930F400FE
:100EA000F2246430F4000030F50062247008353C10
:100EB0008316B5000730BB000C30BC001230BD00FB
:100EC0003530BE00BF0109273408003C0318732FDA
:100ED0000730BB003508BC001230BD003530BE0005
:080EE0000130BF0009270800E2
:100EE800831203136A08003A031D8B2F83163208F6
:100EF800013A031D8B2F2030831285064130FC00F8
:100F0800EE30FD00FD0B862FFC0B862F00008312B0
:100F18006A08013A031DA12F83163208013A031DFE
:100F2800A12F0830831285064130FC00EE30FD0009
:100F3800FD0B9C2FFC0B9C2F000083126A08023AC1
:100F4800031DB72F83163208013A031DB72F10303F
:100F5800831285064130FC00EE30FD00FD0BB22FF8
:080F6800FC0BB22F0000080091
:100F7000B7218A110A128000840AB00A0319B10A43
:080F8000F003031DB82F080067
:100F8800FF3083160313A600FF30A700FF30A80028
:100F9800FF30C33083129F05C0309F004709F0001F
:0E0FA800700883169F059F1783121F14080000
:100FB60083160313B30183120718F92F4130FC007F
:100FC600EE30FD00FD0BE52FFC0BE52F00000718AA
:100FD600F92FEA0A01308316B30083126A08023C2D
:100FE6000318F62FEA010718F92FF62F8316330890
:060FF600F000F10108000B
:1010000083160313BA01831287188F284130FC001E
:10101000EE30FD00FD0B0A28FC0B0A2800008718A3
:101020008F286A08013A031D4D285F30831622027B
:1010300003184D280530A2070130BA001E30BB004E
:101040001C30BC004630BD002830BE00BF018A11F4
:1010500009278A152208BB00BC01B330BD008A11E4
:101060009C238A15B330BB008A1106248A15B3303D
:10107000BB003730BC000430BD000130BE008A1117
:1010800032248A153730BB004630BC000430BD0026
:101090000130BE008A1132248A1583126A08023A8E
:1010A000031D8B2809306F0203188B28EF0A0130CB
:1010B0008316BA005530BB001C30BC007830BD0030
:1010C0002830BE00BF018A1109278A1583126F08D4
:1010D0008316BB00BC01B330BD008A119C238A1566
:1010E000B330BB008A1106248A15B330BB005530DB
:1010F000BC000430BD000130BE008A1132248A15C4
:101100003A30BB006430BC000430BD000130BE008A
:101110008A1132248A15831287188F288B28071981
:101120001A294130FC00EE30FD00FD0B9528FC0B28
:101130009528000007191A296A08013A031DD828C2
:1011400083162208503C0318D8280530A20201302B
:10115000BA001E30BB001C30BC004630BD00283039
:10116000BE00BF018A1109278A152208BB00BC01F5
:10117000B330BD008A119C238A15B330BB008A119D
:1011800006248A15B330BB003730BC000430BD00E4
:101190000130BE008A1132248A153D30BB00463032
:1011A000BC000430BD000130BE008A1132248A1513
:1011B00083126A08023A031D16296F08053C0318BA
:1011C0001629EF0301308316BA005530BB001C30DE
:1011D000BC007830BD002830BE00BF018A1109274D
:1011E0008A1583126F088316BB00BC01B330BD00A3
:1011F0008A119C238A15B330BB008A1106248A15F4
:10120000B330BB005530BC000430BD000130BE001F
:101210008A1132248A154030BB006430BC0004308F
:10122000BD000130BE008A1132248A1583120719CD
:0E1230001A29162983163A08F000F101080069
:10123E00831603133508013A031D52292308013A78
:10124E00031D522901302402F100F201031CF203A6
:10125E0080307206F000803034067002031D39298A
:10126E0033087102031C3D2983128514831624084A
:10127E00013EF100F2010318F20A80303406F0004C
:10128E00803072067002031D4E2971083302031C52
:10129E0052298312851083163508023A031D8729B9
:1012AE0083126B08013A031D872901306C02F1008D
:1012BE00F201031CF20380307206F00080308316B8
:1012CE0034067002031D6D2933087102031C712947
:1012DE008312051183126C08013EF100F20103180E
:1012EE00F20A803083163406F000803072067002E7
:1012FE00031D832971083302031C872983120515E8
:02130E000800D5
:1013100083160313BB018A11BF258A156530BB00F4
:101320000C30BC000530BD000730BE002030BF00CF
:101330000030C0008A1133258A150530BB000A3001
:10134000BC001430BD003730BE000130BF008A1130
:1013500009278A150630BB000B30BC001330BD00D6
:101360003630BE00BF018A11CB248A153208013AFB
:10137000031DBD295A30B800BF290A30B8003530E6
:10138000B9003808F0002930F4008A11F2248A15D7
:101390006430F4000030F5008A1162248A15700868
:1013A000353C8316BA000730BB000C30BC0012304D
:1013B000BD003530BE00BF018A1109278A153808E3
:1013C000003C0318F0290730BB003A08BC0012307B
:1013D000BD003908BE000130BF008A1109278A15F7
:1013E0002430BB001930BC000230BD000130BE000B
:1013F0008A1132248A152830BB003730BC000230F5
:10140000BD000130BE008A1132248A152208BB00BB
:10141000BC01B330BD008A119C238A15B330BB00D8
:101420008A1106248A15B330BB003730BC00043063
:10143000BD000130BE008A1132248A152C30BB0059
:101440004630BC000430BD000130BE008A11322499
:101450008A152F30BB005530BC000230BD00013072
:10146000BE008A1132248A1583126F088316BB00CE
:10147000BC01B330BD008A119C238A15B330BB0078
:101480008A1106248A15B330BB005530BC000430E5
:10149000BD000130BE008A1132248A153430BB00F1
:1014A0006430BC000430BD000130BE008A1132241B
:1014B0008A15BB01BC017F30BD003F30BE0001304A
:0A14C000BF008A11CB248A15080032
:1014CA0083160313AB0186120713061186118712BE
:1014DA000712831286128030F0007008083E8400DA
:1014EA008001061186118712071686163F3088007A
:1014FA008A118C208A15C03088008A118C208A159E
:10150A00871607123F3088008A118C208A15C0304E
:0A151A0088008A118C208A15080051
:101524008C26C03083160317880089018A11C427CA
:101534008A15031787138813313083160313860023
:10154400850188018914091509100F308700831259
:10155400880186018901850187138316A511251247
:1015640007308100013095008230FC00DD30FD0041
:10157400FD0BBA2AFC0BBA2A000000006522823057
:10158400FC00DD30FD00FD0BC52AFC0BC52A000064
:1015940000008316BB018A11BF258A156530BB0084
:1015A4000C30BC000530BD000730BE002030BF0049
:1015B4000030C0008A1133258A155D30BB00193014
:1015C400BC000230BD000130BE008A1132248A15ED
:1015D4004830BB001430BC000430BD000130BE00F4
:1015E4008A1132248A155530BB002330BC000630E2
:1015F400BD000130BE008A1132248A154130FC003E
:10160400EE30FD00FD0B042BFC0B042B000000301E
:101614008312061801308316B2000230FB00043036
:10162400FC00BA30FD00FD0B152BFC0B152BFB0B3E
:10163400152B00008312061E232B01308316A300F2
:10164400252B8316A3018312861E2B2B0130EB005E
:101654002C2BEB0183163208013A031D332B0113A3
:10166400342B01178B100B160B108B153030960092
:10167400831281018B1683162510A5102511831260
:10168400C301C401C501C6018316A511251250303A
:10169400A20005308312EF0050308316A4000530F9
:1016A4008312EC003330FB00BB30FC00DF30FD0064
:1016B400FD0B5A2BFC0B5A2BFB0B5A2B0000000082
:1016C40088210B30FB002630FC005D30FD00FD0B53
:1016D400692BFC0B692BFB0B692B000000008B179B
:1016E4000B1783120514861009108A11DB278A153B
:1016F400700871040319942B83126A08003A031DBD
:10170400862B0514861009106A08013A031D8D2BD7
:101714000510861409106A08023A031D942B05105B
:10172400861009144130FC00EE30FD00FD0B982BAF
:10173400FC0B982B00000020700871040319A72BE0
:101744002208A40083126F08EC0083128719BD2BB2
:101754004130FC00EE30FD00FD0BAE2BFC0BAE2B3C
:1017640000008719BD2B8A1174278A15831203136D
:101774008719BD2BB82B4130FC00EE30FD00FD0B6A
:10178400C12BFC0BC12B00008316251CDD2B25105F
:101794004130FC00EE30FD00FD0BCE2BFC0BCE2BBC
:1017A4000000251EDA2B3208003A031DDA2BB201A1
:1017B4008A1140278A154130FC00EE30FD00FD0BF4
:1017C400E12BFC0BE12B00003208003A031D002C36
:1017D400A519F52B251AF52B831287178316A51542
:1017E4008312C501C6018316251EFF2B831287139E
:1017F4008316B2018A1140278A15532C831287134A
:101804008316A5118312C501C60183162512A51CD2
:10181400152CA5104130FC00EE30FD00FD0B102C02
:10182400FC0B102C0000251D532C25114130FC000D
:10183400EE30FD00FD0B1C2CFC0B1C2C00002308BF
:101844000319322C0630B3008A111D278A1570083B
:101854008316A9007008B300B4010130B5001F213C
:10186400023083120313FB000430FC00BA30FD0085
:10187400FD0B3A2CFC0B3A2CFB0B3A2C00006B08AA
:101884000319532C07308316B3008A111D278A15B8
:1018940070088316AA007008B300B4010230B500C2
:1018A4001F21413083120313FC00EE30FD00FD0BB9
:0C18B400592CFC0B592C0000772B5F2CEA
:101D180024308400473083120313F00045308316C3
:0E1D2800B0000E30B1008A11B8278A150800ED
:1018CA0000340034003400340034003400345F340F
:1018DA00003400340034073400340734003414343C
:1018EA007F3414347F34143424342A347F342A3431
:1018FA0012342334133408346434623436344934A9
:10190A00553422345034003405340334003400345E
:10191A0000341C342234413400340034413422343B
:10192A001C34003408342A341C342A340834083469
:10193A0008343E3408340834003450343034003427
:10194A000034083408340834083408340034303495
:10195A00303400340034203410340834043402346F
:10196A003E345134493445343E34003442347F34B1
:10197A0040340034423461345134493446342134D9
:10198A00413445344B3431341834143412347F34EE
:10199A001034273445344534453439343C344A34D8
:1019AA004934493430340134713409340534033448
:1019BA00363449344934493436340634493449349E
:1019CA0029341E34003436343634003400340034BA
:1019DA005634363400340034003408341434223493
:1019EA004134143414341434143414344134223445
:1019FA0014340834003402340134513409340634BE
:101A0A0032344934793441343E347E341134113419
:101A1A0011347E347F3449344934493436343E34BF
:101A2A0041344134413422347F3441344134223404
:101A3A001C347F3449344934493441347F340934BD
:101A4A000934013401343E3441344134513432349E
:101A5A007F340834083408347F34003441347F3406
:101A6A00413400342034403441343F3401347F342B
:101A7A0008341434223441347F34403440344034FE
:101A8A0040347F340234043402347F347F340434E3
:101A9A00083410347F343E344134413441343E34C6
:101AAA007F3409340934093406343E34413451341C
:101ABA0021345E347F3409341934293446344634A7
:101ACA004934493449343134013401347F340134DE
:101ADA0001343F344034403440343F341F342034DE
:101AEA00403420341F347F342034183420347F3477
:101AFA0063341434083414346334033404347834C7
:101B0A0004340334613451344934453443340034A1
:101B1A0000347F34413441340234043408341034FC
:101B2A002034413441347F340034003404340234E4
:101B3A0001340234043440344034403440344034B4
:101B4A00003401340234043400342034543454341C
:101B5A00543478347F344834443444343834383450
:101B6A0044344434443420343834443444344834D7
:101B7A007F343834543454345434183408347E346A
:101B8A0009340134023408341434543454343C349F
:101B9A007F340834043404347834003444347D34D3
:101BAA00403400342034403444343D34003400346A
:101BBA007F34103428344434003441347F34403480
:101BCA0000347C3404341834043478347C340834D3
:101BDA00043404347834383444344434443438349F
:101BEA007C3414341434143408340834143414345B
:101BFA0018347C347C3408340434043408344834CB
:101C0A00543454345434203404343F344434403447
:101C1A0020343C344034403420347C341C34203466
:101C2A00403420341C343C344034303440343C3466
:101C3A00443428341034283444340C345034503466
:101C4A0050343C344434643454344C3444340034D2
:101C5A000834363441340034003400347F340034DC
:101C6A00003400344134363408340034083408343B
:101C7A002A341C34083408341C342A34083408340E
:081C8A004E346534753400345A
:081C920048346F34743400344F
:061C9A002A34433400343B
:0A1CA00043346F346C3464340034B4
:061CAA002A34433400342B
:061CB0002A344334003425
:061CB6002A34433400341F
:061CBC002A344334003419
:061CC2002A344334003413
:041CC80000340034B0
:041CCC0000340034AC
:021CD0003034AE
:101CD20056347534693420346C346F346E3467345E
:0A1CE2002034633468346F3400349A
:101CEC00313430342034673469346134793400341D
:101CFC004B3468346F346934203464346F346E344C
:0A1D0C0067342E342E342E340034D8
:021D1600003497
:04400E00D22F0007A6
:00000001FF
