:020000002728AF
:0E000600831203132B088A002A0882000800C8
:1000140003208A110A128000840AAA0A0319AB0A6F
:08002400F003031D0A28080087
:10002C0083120313F8010830FC00700DF80D7408EE
:10003C00F80203182328F8070310F00DFC0B1B28FB
:02004C000800AA
:10004E003F3083120313A0000630A1005B30A200E4
:10005E004F30A3006630A4006D30A5007D30A600A1
:10006E000730A7007F30A8006F30A9008316031752
:10007E008801890186010313880105168312860102
:10008E008801283083168100383081008312810167
:10009E000108AC002C08193C031857288101AC014B
:1000AE002C08193CAD000A30F4002D08F000162083
:1000BE007008203E8400000886000A30F4002D08E7
:1000CE00F00016207808F0007008203E840000082A
:0600DE0088004F28712884
:04400E00F22F000786
:00000001FF
